{
  "contractName": "Insurance",
  "abi": [
    {
      "anonymous": false,
      "inputs": [
        {
          "indexed": true,
          "internalType": "address",
          "name": "owner",
          "type": "address"
        },
        {
          "indexed": true,
          "internalType": "address",
          "name": "approved",
          "type": "address"
        },
        {
          "indexed": true,
          "internalType": "uint256",
          "name": "tokenId",
          "type": "uint256"
        }
      ],
      "name": "Approval",
      "type": "event"
    },
    {
      "anonymous": false,
      "inputs": [
        {
          "indexed": true,
          "internalType": "address",
          "name": "from",
          "type": "address"
        },
        {
          "indexed": true,
          "internalType": "address",
          "name": "to",
          "type": "address"
        },
        {
          "indexed": true,
          "internalType": "uint256",
          "name": "tokenId",
          "type": "uint256"
        }
      ],
      "name": "Transfer",
      "type": "event"
    },
    {
      "inputs": [
        {
          "internalType": "address",
          "name": "",
          "type": "address"
        },
        {
          "internalType": "uint256",
          "name": "",
          "type": "uint256"
        }
      ],
      "name": "client",
      "outputs": [
        {
          "internalType": "bool",
          "name": "isValid",
          "type": "bool"
        },
        {
          "internalType": "uint256",
          "name": "time",
          "type": "uint256"
        }
      ],
      "stateMutability": "view",
      "type": "function"
    },
    {
      "inputs": [
        {
          "internalType": "uint256",
          "name": "",
          "type": "uint256"
        }
      ],
      "name": "productIndex",
      "outputs": [
        {
          "internalType": "uint256",
          "name": "productId",
          "type": "uint256"
        },
        {
          "internalType": "string",
          "name": "productName",
          "type": "string"
        },
        {
          "internalType": "uint256",
          "name": "price",
          "type": "uint256"
        },
        {
          "internalType": "bool",
          "name": "offered",
          "type": "bool"
        }
      ],
      "stateMutability": "view",
      "type": "function"
    },
    {
      "inputs": [
        {
          "internalType": "uint256",
          "name": "tokenId",
          "type": "uint256"
        }
      ],
      "name": "ownerOf",
      "outputs": [
        {
          "internalType": "address",
          "name": "",
          "type": "address"
        }
      ],
      "stateMutability": "view",
      "type": "function"
    },
    {
      "inputs": [
        {
          "internalType": "uint256",
          "name": "_productId",
          "type": "uint256"
        },
        {
          "internalType": "string",
          "name": "_productName",
          "type": "string"
        },
        {
          "internalType": "uint256",
          "name": "_price",
          "type": "uint256"
        }
      ],
      "name": "addProduct",
      "outputs": [],
      "stateMutability": "nonpayable",
      "type": "function"
    },
    {
      "inputs": [
        {
          "internalType": "uint256",
          "name": "_productIndex",
          "type": "uint256"
        }
      ],
      "name": "doNotOffer",
      "outputs": [],
      "stateMutability": "nonpayable",
      "type": "function"
    },
    {
      "inputs": [
        {
          "internalType": "uint256",
          "name": "_productIndex",
          "type": "uint256"
        }
      ],
      "name": "forOffer",
      "outputs": [],
      "stateMutability": "nonpayable",
      "type": "function"
    },
    {
      "inputs": [
        {
          "internalType": "uint256",
          "name": "_productIndex",
          "type": "uint256"
        },
        {
          "internalType": "uint256",
          "name": "_price",
          "type": "uint256"
        }
      ],
      "name": "changePrice",
      "outputs": [],
      "stateMutability": "nonpayable",
      "type": "function"
    },
    {
      "inputs": [
        {
          "internalType": "uint256",
          "name": "_productIndex",
          "type": "uint256"
        }
      ],
      "name": "buyInsurance",
      "outputs": [],
      "stateMutability": "payable",
      "type": "function"
    }
  ],
  "bytecode": "0x60806040524260055534801561001457600080fd5b5061100f806100246000396000f3fe60806040526004361061007b5760003560e01c8063a86a658c1161004e578063a86a658c146102c7578063a92e118f146102f5578063af94549514610330578063b3de019c146103a85761007b565b8063322d5a33146100805780634268ff2d1461014b5780636352211e1461022757806396e2b6b91461028c575b600080fd5b34801561008c57600080fd5b506100b9600480360360208110156100a357600080fd5b81019080803590602001909291905050506103ed565b60405180858152602001806020018481526020018315158152602001828103825285818151815260200191508051906020019080838360005b8381101561010d5780820151818401526020810190506100f2565b50505050905090810190601f16801561013a5780820380516001836020036101000a031916815260200191505b509550505050505060405180910390f35b34801561015757600080fd5b506102256004803603606081101561016e57600080fd5b81019080803590602001909291908035906020019064010000000081111561019557600080fd5b8201836020820111156101a757600080fd5b803590602001918460018302840111640100000000831117156101c957600080fd5b91908080601f016020809104026020016040519081016040528093929190818152602001838380828437600081840152601f19601f820116905080830192505050505050509192919290803590602001909291905050506104c2565b005b34801561023357600080fd5b506102606004803603602081101561024a57600080fd5b8101908080359060200190929190505050610578565b604051808273ffffffffffffffffffffffffffffffffffffffff16815260200191505060405180910390f35b34801561029857600080fd5b506102c5600480360360208110156102af57600080fd5b810190808035906020019092919050505061063f565b005b6102f3600480360360208110156102dd57600080fd5b81019080803590602001909291905050506106b3565b005b34801561030157600080fd5b5061032e6004803603602081101561031857600080fd5b8101908080359060200190929190505050610830565b005b34801561033c57600080fd5b506103896004803603604081101561035357600080fd5b81019080803573ffffffffffffffffffffffffffffffffffffffff16906020019092919080359060200190929190505050610862565b6040518083151581526020018281526020019250505060405180910390f35b3480156103b457600080fd5b506103eb600480360360408110156103cb57600080fd5b8101908080359060200190929190803590602001909291905050506108a0565b005b6003602052806000526040600020600091509050806000015490806001018054600181600116156101000203166002900480601f01602080910402602001604051908101604052809291908181526020018280546001816001161561010002031660029004801561049f5780601f106104745761010080835404028352916020019161049f565b820191906000526020600020905b81548152906001019060200180831161048257829003601f168201915b5050505050908060020154908060030160009054906101000a900460ff16905084565b6006600081548092919060010191905055506000339050604051806080016040528085815260200184815260200183815260200160011515815250600360006006548152602001908152602001600020600082015181600001556020820151816001019080519060200190610538929190610ec6565b506040820151816002015560608201518160030160006101000a81548160ff02191690831515021790555090505061057281600654610901565b50505050565b60008060008084815260200190815260200160002060009054906101000a900473ffffffffffffffffffffffffffffffffffffffff169050600073ffffffffffffffffffffffffffffffffffffffff168173ffffffffffffffffffffffffffffffffffffffff161415610636576040517f08c379a0000000000000000000000000000000000000000000000000000000008152600401808060200182810382526029815260200180610f886029913960400191505060405180910390fd5b80915050919050565b8061064981610578565b73ffffffffffffffffffffffffffffffffffffffff163373ffffffffffffffffffffffffffffffffffffffff161461068057600080fd5b60016003600084815260200190815260200160002060030160006101000a81548160ff0219169083151502179055505050565b610384600554014211156106c657600080fd5b600115156003600083815260200190815260200160002060030160009054906101000a900460ff16151514610763576040517f08c379a00000000000000000000000000000000000000000000000000000000081526004018080602001828103825260168152602001807f54686973206974656d20697320736f6c64206f7574210000000000000000000081525060200191505060405180910390fd5b60036000828152602001908152602001600020600201543411156107ef576040517f08c379a000000000000000000000000000000000000000000000000000000000815260040180806020018281038252601d8152602001807f596f7520646f6e2774206861766520656e6f75676820746f6b656e732100000081525060200191505060405180910390fd5b6107f881610830565b6040518060400160405280600115158152602001428152505061082461081d82610578565b3383610b2a565b61082d81610830565b50565b60006003600083815260200190815260200160002060030160006101000a81548160ff02191690831515021790555050565b6004602052816000526040600020602052806000526040600020600091509150508060000160009054906101000a900460ff16908060010154905082565b816108aa81610578565b73ffffffffffffffffffffffffffffffffffffffff163373ffffffffffffffffffffffffffffffffffffffff16146108e157600080fd5b816003600085815260200190815260200160002060020181905550505050565b600073ffffffffffffffffffffffffffffffffffffffff168273ffffffffffffffffffffffffffffffffffffffff1614156109a4576040517f08c379a00000000000000000000000000000000000000000000000000000000081526004018080602001828103825260208152602001807f4552433732313a206d696e7420746f20746865207a65726f206164647265737381525060200191505060405180910390fd5b6109ad81610d9d565b15610a20576040517f08c379a000000000000000000000000000000000000000000000000000000000815260040180806020018281038252601c8152602001807f4552433732313a20746f6b656e20616c7265616479206d696e7465640000000081525060200191505060405180910390fd5b610a2c60008383610e08565b60018060008473ffffffffffffffffffffffffffffffffffffffff1673ffffffffffffffffffffffffffffffffffffffff168152602001908152602001600020600082825401925050819055508160008083815260200190815260200160002060006101000a81548173ffffffffffffffffffffffffffffffffffffffff021916908373ffffffffffffffffffffffffffffffffffffffff160217905550808273ffffffffffffffffffffffffffffffffffffffff16600073ffffffffffffffffffffffffffffffffffffffff167fddf252ad1be2c89b69c2b068fc378daa952ba7f163c4a11628f55a4df523b3ef60405160405180910390a45050565b8273ffffffffffffffffffffffffffffffffffffffff16610b4a82610578565b73ffffffffffffffffffffffffffffffffffffffff1614610bb6576040517f08c379a0000000000000000000000000000000000000000000000000000000008152600401808060200182810382526029815260200180610fb16029913960400191505060405180910390fd5b600073ffffffffffffffffffffffffffffffffffffffff168273ffffffffffffffffffffffffffffffffffffffff161415610c3c576040517f08c379a0000000000000000000000000000000000000000000000000000000008152600401808060200182810382526024815260200180610f646024913960400191505060405180910390fd5b610c47838383610e08565b610c52600082610e0d565b60018060008573ffffffffffffffffffffffffffffffffffffffff1673ffffffffffffffffffffffffffffffffffffffff1681526020019081526020016000206000828254039250508190555060018060008473ffffffffffffffffffffffffffffffffffffffff1673ffffffffffffffffffffffffffffffffffffffff168152602001908152602001600020600082825401925050819055508160008083815260200190815260200160002060006101000a81548173ffffffffffffffffffffffffffffffffffffffff021916908373ffffffffffffffffffffffffffffffffffffffff160217905550808273ffffffffffffffffffffffffffffffffffffffff168473ffffffffffffffffffffffffffffffffffffffff167fddf252ad1be2c89b69c2b068fc378daa952ba7f163c4a11628f55a4df523b3ef60405160405180910390a4505050565b60008073ffffffffffffffffffffffffffffffffffffffff1660008084815260200190815260200160002060009054906101000a900473ffffffffffffffffffffffffffffffffffffffff1673ffffffffffffffffffffffffffffffffffffffff1614159050919050565b505050565b816002600083815260200190815260200160002060006101000a81548173ffffffffffffffffffffffffffffffffffffffff021916908373ffffffffffffffffffffffffffffffffffffffff160217905550808273ffffffffffffffffffffffffffffffffffffffff16610e8083610578565b73ffffffffffffffffffffffffffffffffffffffff167f8c5be1e5ebec7d5bd14f71427d1e84f3dd0314c0f7b2291e5b200ac8c7c3b92560405160405180910390a45050565b828054600181600116156101000203166002900490600052602060002090601f016020900481019282601f10610f0757805160ff1916838001178555610f35565b82800160010185558215610f35579182015b82811115610f34578251825591602001919060010190610f19565b5b509050610f429190610f46565b5090565b5b80821115610f5f576000816000905550600101610f47565b509056fe4552433732313a207472616e7366657220746f20746865207a65726f20616464726573734552433732313a206f776e657220717565727920666f72206e6f6e6578697374656e7420746f6b656e4552433732313a207472616e73666572206f6620746f6b656e2074686174206973206e6f74206f776ea26469706673582212208a0aacdc3fd7353b6b8dcfa95df5312431d6bffbb831fc7e9f7cc0a15ed6f22964736f6c63430007000033",
  "immutableReferences": {},
  "source": "\n//SPDX-License-Identifier: MIT\npragma solidity >=0.6.0 <0.8.1;\n\n//import \"github/OpenZeppelin/openzeppelin-contracts/contracts/token/ERC721/ERC721.sol\";\ncontract Insurance {\n    \n\n    event Transfer(address indexed from, address indexed to, uint256 indexed tokenId);\n\n    /**\n     * @dev Emitted when `owner` enables `approved` to manage the `tokenId` token.\n     */\n    event Approval(address indexed owner, address indexed approved, uint256 indexed tokenId);\n\n    // Mapping from token ID to owner address\n    mapping (uint256 => address) private _owners;\n\n    // Mapping owner address to token count\n    mapping (address => uint256) private _balances;\n    // Mapping from token ID to approved address\n    mapping (uint256 => address) private _tokenApprovals;\n\n    function _beforeTokenTransfer(address from, address to, uint256 tokenId) internal virtual { }\n\n    function _approve(address to, uint256 tokenId) internal virtual {\n        _tokenApprovals[tokenId] = to;\n        emit Approval(ownerOf(tokenId), to, tokenId);\n    }\n    \n        function ownerOf(uint256 tokenId) public view virtual  returns (address) {\n        address owner = _owners[tokenId];\n        require(owner != address(0), \"ERC721: owner query for nonexistent token\");\n        return owner;\n    }\n    \n    function _transfer(address from, address to, uint256 tokenId) internal virtual {\n        require(ownerOf(tokenId) == from, \"ERC721: transfer of token that is not own\");\n        require(to != address(0), \"ERC721: transfer to the zero address\");\n\n        _beforeTokenTransfer(from, to, tokenId);\n\n        // Clear approvals from the previous owner\n        _approve(address(0), tokenId);\n\n        _balances[from] -= 1;\n        _balances[to] += 1;\n        _owners[tokenId] = to;\n\n        emit Transfer(from, to, tokenId);\n    }\n    \n        function _mint(address to, uint256 tokenId) internal virtual {\n        require(to != address(0), \"ERC721: mint to the zero address\");\n        require(!_exists(tokenId), \"ERC721: token already minted\");\n\n        _beforeTokenTransfer(address(0), to, tokenId);\n\n        _balances[to] += 1;\n        _owners[tokenId] = to;\n\n        emit Transfer(address(0), to, tokenId);\n    }\n    \n        function _exists(uint256 tokenId) internal view virtual returns (bool) {\n        return _owners[tokenId] != address(0);\n    }\n    \n    struct Product {\n        uint productId;\n        string productName;\n        uint price;\n        bool offered;\n    }\n     \n    struct Client {\n        bool isValid;\n        uint time;\n    }\n    \n     modifier OnlyinsOwner(uint _prodID) {\n         require(msg.sender == ownerOf(_prodID));\n         _;\n    }\n         modifier TimeCheck {\n         require(block.timestamp <= timeLocked + 15 minutes );\n         _;\n     }\n    \n    mapping(uint => Product) public productIndex;\n    mapping(address => mapping(uint => Client)) public client;\n    uint256 timeLocked = block.timestamp;\n    uint productCounter;\n    \n     address payable insOwner;\n    // constructor(address payable _insOwner) public{\n    //     insOwner = _insOwner;\n    // }\n \n    function addProduct(uint _productId, string memory _productName, uint _price ) public  {\n        \n       productCounter++;\n       address  prodOwner = msg.sender;\n       productIndex[productCounter]= Product(_productId, _productName, _price, true);\n       _mint(prodOwner, productCounter);\n    }\n    \n    \n    function doNotOffer(uint _productIndex) public {\n\n        productIndex[_productIndex].offered = false;\n    }\n    \n    function forOffer(uint _productIndex) public OnlyinsOwner(_productIndex) {\n        \n        productIndex[_productIndex].offered = true;\n    }\n    \n    function changePrice(uint _productIndex, uint _price) public OnlyinsOwner(_productIndex) {\n\n        productIndex[_productIndex].price = _price;\n        \n    }\n    \n    \n    function buyInsurance(uint _productIndex) public payable TimeCheck {\n        require(productIndex[_productIndex].offered == true, \"This item is sold out!\");\n        require(msg.value <= productIndex[_productIndex].price, \"You don't have enough tokens!\");\n        doNotOffer(_productIndex);        \n        Client(true, block.timestamp);\n        _transfer(ownerOf(_productIndex), msg.sender,_productIndex);   \n        doNotOffer(_productIndex);   \n    } \n    \n}\n",
  "sourcePath": "/Users/sufanak/Desktop/codingdojo/week5/Insurance_NoERC721/contracts/Insurance.sol",
  "compiler": {
    "name": "solc",
    "version": "0.7.0+commit.9e61f92b.Emscripten.clang"
  },
  "schemaVersion": "3.3.4",
  "updatedAt": "2021-03-10T04:14:09.439Z",
  "devdoc": {
    "events": {
      "Approval(address,address,uint256)": {
        "details": "Emitted when `owner` enables `approved` to manage the `tokenId` token."
      }
    },
    "kind": "dev",
    "methods": {},
    "version": 1
  },
  "userdoc": {
    "kind": "user",
    "methods": {},
    "version": 1
  }
}