{
  "contractName": "Insurance",
  "abi": [
    {
      "anonymous": false,
      "inputs": [
        {
          "indexed": true,
          "internalType": "address",
          "name": "owner",
          "type": "address"
        },
        {
          "indexed": true,
          "internalType": "address",
          "name": "approved",
          "type": "address"
        },
        {
          "indexed": true,
          "internalType": "uint256",
          "name": "tokenId",
          "type": "uint256"
        }
      ],
      "name": "Approval",
      "type": "event"
    },
    {
      "anonymous": false,
      "inputs": [
        {
          "indexed": true,
          "internalType": "address",
          "name": "from",
          "type": "address"
        },
        {
          "indexed": true,
          "internalType": "address",
          "name": "to",
          "type": "address"
        },
        {
          "indexed": true,
          "internalType": "uint256",
          "name": "tokenId",
          "type": "uint256"
        }
      ],
      "name": "Transfer",
      "type": "event"
    },
    {
      "inputs": [
        {
          "internalType": "address",
          "name": "",
          "type": "address"
        },
        {
          "internalType": "uint256",
          "name": "",
          "type": "uint256"
        }
      ],
      "name": "client",
      "outputs": [
        {
          "internalType": "bool",
          "name": "isValid",
          "type": "bool"
        },
        {
          "internalType": "uint256",
          "name": "time",
          "type": "uint256"
        }
      ],
      "stateMutability": "view",
      "type": "function",
      "constant": true
    },
    {
      "inputs": [
        {
          "internalType": "uint256",
          "name": "",
          "type": "uint256"
        }
      ],
      "name": "productIndex",
      "outputs": [
        {
          "internalType": "uint256",
          "name": "productId",
          "type": "uint256"
        },
        {
          "internalType": "string",
          "name": "productName",
          "type": "string"
        },
        {
          "internalType": "uint256",
          "name": "price",
          "type": "uint256"
        },
        {
          "internalType": "bool",
          "name": "offered",
          "type": "bool"
        }
      ],
      "stateMutability": "view",
      "type": "function",
      "constant": true
    },
    {
      "inputs": [
        {
          "internalType": "uint256",
          "name": "tokenId",
          "type": "uint256"
        }
      ],
      "name": "ownerOf",
      "outputs": [
        {
          "internalType": "address",
          "name": "",
          "type": "address"
        }
      ],
      "stateMutability": "view",
      "type": "function",
      "constant": true
    },
    {
      "inputs": [
        {
          "internalType": "uint256",
          "name": "_productId",
          "type": "uint256"
        },
        {
          "internalType": "string",
          "name": "_productName",
          "type": "string"
        },
        {
          "internalType": "uint256",
          "name": "_price",
          "type": "uint256"
        },
        {
          "internalType": "address",
          "name": "pOwne",
          "type": "address"
        }
      ],
      "name": "addProduct",
      "outputs": [],
      "stateMutability": "nonpayable",
      "type": "function"
    },
    {
      "inputs": [
        {
          "internalType": "uint256",
          "name": "_productIndex",
          "type": "uint256"
        }
      ],
      "name": "doNotOffer",
      "outputs": [],
      "stateMutability": "nonpayable",
      "type": "function"
    },
    {
      "inputs": [
        {
          "internalType": "uint256",
          "name": "_productIndex",
          "type": "uint256"
        }
      ],
      "name": "forOffer",
      "outputs": [],
      "stateMutability": "nonpayable",
      "type": "function"
    },
    {
      "inputs": [
        {
          "internalType": "uint256",
          "name": "_productIndex",
          "type": "uint256"
        },
        {
          "internalType": "uint256",
          "name": "_price",
          "type": "uint256"
        }
      ],
      "name": "changePrice",
      "outputs": [],
      "stateMutability": "nonpayable",
      "type": "function"
    },
    {
      "inputs": [
        {
          "internalType": "uint256",
          "name": "_productIndex",
          "type": "uint256"
        }
      ],
      "name": "fetch",
      "outputs": [
        {
          "internalType": "uint256",
          "name": "productId",
          "type": "uint256"
        },
        {
          "internalType": "string",
          "name": "productName",
          "type": "string"
        },
        {
          "internalType": "uint256",
          "name": "price",
          "type": "uint256"
        },
        {
          "internalType": "bool",
          "name": "offere",
          "type": "bool"
        },
        {
          "internalType": "address",
          "name": "owner",
          "type": "address"
        }
      ],
      "stateMutability": "view",
      "type": "function",
      "constant": true
    },
    {
      "inputs": [
        {
          "internalType": "address",
          "name": "_address",
          "type": "address"
        }
      ],
      "name": "getBalance",
      "outputs": [
        {
          "internalType": "uint256",
          "name": "balance",
          "type": "uint256"
        }
      ],
      "stateMutability": "view",
      "type": "function",
      "constant": true
    },
    {
      "inputs": [
        {
          "internalType": "uint256",
          "name": "_productIndex",
          "type": "uint256"
        }
      ],
      "name": "buyInsurance",
      "outputs": [],
      "stateMutability": "payable",
      "type": "function",
      "payable": true
    }
  ],
  "bytecode": "0x60806040524260055534801561001457600080fd5b50611313806100246000396000f3fe6080604052600436106100915760003560e01c8063a86a658c11610059578063a86a658c146103e5578063a92e118f14610413578063af9454951461044e578063b3de019c146104c6578063f8b2cb4f1461050b57610091565b8063097de15c14610096578063322d5a33146101925780636352211e1461025d5780637a33e3b0146102c257806396e2b6b9146103aa575b600080fd5b3480156100a257600080fd5b50610190600480360360808110156100b957600080fd5b8101908080359060200190929190803590602001906401000000008111156100e057600080fd5b8201836020820111156100f257600080fd5b8035906020019184600183028401116401000000008311171561011457600080fd5b91908080601f016020809104026020016040519081016040528093929190818152602001838380828437600081840152601f19601f82011690508083019250505050505050919291929080359060200190929190803573ffffffffffffffffffffffffffffffffffffffff169060200190929190505050610570565b005b34801561019e57600080fd5b506101cb600480360360208110156101b557600080fd5b8101908080359060200190929190505050610627565b60405180858152602001806020018481526020018315158152602001828103825285818151815260200191508051906020019080838360005b8381101561021f578082015181840152602081019050610204565b50505050905090810190601f16801561024c5780820380516001836020036101000a031916815260200191505b509550505050505060405180910390f35b34801561026957600080fd5b506102966004803603602081101561028057600080fd5b81019080803590602001909291905050506106fc565b604051808273ffffffffffffffffffffffffffffffffffffffff16815260200191505060405180910390f35b3480156102ce57600080fd5b506102fb600480360360208110156102e557600080fd5b81019080803590602001909291905050506107c3565b604051808681526020018060200185815260200184151581526020018373ffffffffffffffffffffffffffffffffffffffff168152602001828103825286818151815260200191508051906020019080838360005b8381101561036b578082015181840152602081019050610350565b50505050905090810190601f1680156103985780820380516001836020036101000a031916815260200191505b50965050505050505060405180910390f35b3480156103b657600080fd5b506103e3600480360360208110156103cd57600080fd5b81019080803590602001909291905050506108e9565b005b610411600480360360208110156103fb57600080fd5b810190808035906020019092919050505061095d565b005b34801561041f57600080fd5b5061044c6004803603602081101561043657600080fd5b8101908080359060200190929190505050610ad1565b005b34801561045a57600080fd5b506104a76004803603604081101561047157600080fd5b81019080803573ffffffffffffffffffffffffffffffffffffffff16906020019092919080359060200190929190505050610b45565b6040518083151581526020018281526020019250505060405180910390f35b3480156104d257600080fd5b50610509600480360360408110156104e957600080fd5b810190808035906020019092919080359060200190929190505050610b83565b005b34801561051757600080fd5b5061055a6004803603602081101561052e57600080fd5b81019080803573ffffffffffffffffffffffffffffffffffffffff169060200190929190505050610be4565b6040518082815260200191505060405180910390f35b60066000815480929190600101919050555060008190506040518060800160405280868152602001858152602001848152602001600115158152506003600060065481526020019081526020016000206000820151816000015560208201518160010190805190602001906105e69291906111ca565b506040820151816002015560608201518160030160006101000a81548160ff02191690831515021790555090505061062081600654610c05565b5050505050565b6003602052806000526040600020600091509050806000015490806001018054600181600116156101000203166002900480601f0160208091040260200160405190810160405280929190818152602001828054600181600116156101000203166002900480156106d95780601f106106ae576101008083540402835291602001916106d9565b820191906000526020600020905b8154815290600101906020018083116106bc57829003601f168201915b5050505050908060020154908060030160009054906101000a900460ff16905084565b60008060008084815260200190815260200160002060009054906101000a900473ffffffffffffffffffffffffffffffffffffffff169050600073ffffffffffffffffffffffffffffffffffffffff168173ffffffffffffffffffffffffffffffffffffffff1614156107ba576040517f08c379a000000000000000000000000000000000000000000000000000000000815260040180806020018281038252602981526020018061128c6029913960400191505060405180910390fd5b80915050919050565b60006060600080600060036000878152602001908152602001600020600001549450600360008781526020019081526020016000206001018054600181600116156101000203166002900480601f01602080910402602001604051908101604052809291908181526020018280546001816001161561010002031660029004801561088f5780601f106108645761010080835404028352916020019161088f565b820191906000526020600020905b81548152906001019060200180831161087257829003601f168201915b50505050509350600360008781526020019081526020016000206002015492506003600087815260200190815260200160002060030160009054906101000a900460ff1691506108de866106fc565b905091939590929450565b806108f3816106fc565b73ffffffffffffffffffffffffffffffffffffffff163373ffffffffffffffffffffffffffffffffffffffff161461092a57600080fd5b60016003600084815260200190815260200160002060030160006101000a81548160ff0219169083151502179055505050565b6103846005540142111561097057600080fd5b600115156003600083815260200190815260200160002060030160009054906101000a900460ff16151514610a0d576040517f08c379a00000000000000000000000000000000000000000000000000000000081526004018080602001828103825260168152602001807f54686973206974656d20697320736f6c64206f7574210000000000000000000081525060200191505060405180910390fd5b6003600082815260200190815260200160002060020154341115610a99576040517f08c379a000000000000000000000000000000000000000000000000000000000815260040180806020018281038252601d8152602001807f596f7520646f6e2774206861766520656e6f75676820746f6b656e732100000081525060200191505060405180910390fd5b60405180604001604052806001151581526020014281525050610ac5610abe826106fc565b3383610e2e565b610ace81610ad1565b50565b80610adb816106fc565b73ffffffffffffffffffffffffffffffffffffffff163373ffffffffffffffffffffffffffffffffffffffff1614610b1257600080fd5b60006003600084815260200190815260200160002060030160006101000a81548160ff0219169083151502179055505050565b6004602052816000526040600020602052806000526040600020600091509150508060000160009054906101000a900460ff16908060010154905082565b81610b8d816106fc565b73ffffffffffffffffffffffffffffffffffffffff163373ffffffffffffffffffffffffffffffffffffffff1614610bc457600080fd5b816003600085815260200190815260200160002060020181905550505050565b60008173ffffffffffffffffffffffffffffffffffffffff16319050919050565b600073ffffffffffffffffffffffffffffffffffffffff168273ffffffffffffffffffffffffffffffffffffffff161415610ca8576040517f08c379a00000000000000000000000000000000000000000000000000000000081526004018080602001828103825260208152602001807f4552433732313a206d696e7420746f20746865207a65726f206164647265737381525060200191505060405180910390fd5b610cb1816110a1565b15610d24576040517f08c379a000000000000000000000000000000000000000000000000000000000815260040180806020018281038252601c8152602001807f4552433732313a20746f6b656e20616c7265616479206d696e7465640000000081525060200191505060405180910390fd5b610d306000838361110c565b60018060008473ffffffffffffffffffffffffffffffffffffffff1673ffffffffffffffffffffffffffffffffffffffff168152602001908152602001600020600082825401925050819055508160008083815260200190815260200160002060006101000a81548173ffffffffffffffffffffffffffffffffffffffff021916908373ffffffffffffffffffffffffffffffffffffffff160217905550808273ffffffffffffffffffffffffffffffffffffffff16600073ffffffffffffffffffffffffffffffffffffffff167fddf252ad1be2c89b69c2b068fc378daa952ba7f163c4a11628f55a4df523b3ef60405160405180910390a45050565b8273ffffffffffffffffffffffffffffffffffffffff16610e4e826106fc565b73ffffffffffffffffffffffffffffffffffffffff1614610eba576040517f08c379a00000000000000000000000000000000000000000000000000000000081526004018080602001828103825260298152602001806112b56029913960400191505060405180910390fd5b600073ffffffffffffffffffffffffffffffffffffffff168273ffffffffffffffffffffffffffffffffffffffff161415610f40576040517f08c379a00000000000000000000000000000000000000000000000000000000081526004018080602001828103825260248152602001806112686024913960400191505060405180910390fd5b610f4b83838361110c565b610f56600082611111565b60018060008573ffffffffffffffffffffffffffffffffffffffff1673ffffffffffffffffffffffffffffffffffffffff1681526020019081526020016000206000828254039250508190555060018060008473ffffffffffffffffffffffffffffffffffffffff1673ffffffffffffffffffffffffffffffffffffffff168152602001908152602001600020600082825401925050819055508160008083815260200190815260200160002060006101000a81548173ffffffffffffffffffffffffffffffffffffffff021916908373ffffffffffffffffffffffffffffffffffffffff160217905550808273ffffffffffffffffffffffffffffffffffffffff168473ffffffffffffffffffffffffffffffffffffffff167fddf252ad1be2c89b69c2b068fc378daa952ba7f163c4a11628f55a4df523b3ef60405160405180910390a4505050565b60008073ffffffffffffffffffffffffffffffffffffffff1660008084815260200190815260200160002060009054906101000a900473ffffffffffffffffffffffffffffffffffffffff1673ffffffffffffffffffffffffffffffffffffffff1614159050919050565b505050565b816002600083815260200190815260200160002060006101000a81548173ffffffffffffffffffffffffffffffffffffffff021916908373ffffffffffffffffffffffffffffffffffffffff160217905550808273ffffffffffffffffffffffffffffffffffffffff16611184836106fc565b73ffffffffffffffffffffffffffffffffffffffff167f8c5be1e5ebec7d5bd14f71427d1e84f3dd0314c0f7b2291e5b200ac8c7c3b92560405160405180910390a45050565b828054600181600116156101000203166002900490600052602060002090601f016020900481019282601f1061120b57805160ff1916838001178555611239565b82800160010185558215611239579182015b8281111561123857825182559160200191906001019061121d565b5b509050611246919061124a565b5090565b5b8082111561126357600081600090555060010161124b565b509056fe4552433732313a207472616e7366657220746f20746865207a65726f20616464726573734552433732313a206f776e657220717565727920666f72206e6f6e6578697374656e7420746f6b656e4552433732313a207472616e73666572206f6620746f6b656e2074686174206973206e6f74206f776ea26469706673582212200bda64f5b6188aaaabd0ae702fa4555b6d2a65fe32415c9ff7eaef42573c86d364736f6c63430007000033",
  "immutableReferences": {},
  "source": "\n//SPDX-License-Identifier: MIT\npragma solidity ^0.7.0;\n\n\ncontract Insurance {\n    \n\n    event Transfer(address indexed from, address indexed to, uint256 indexed tokenId);\n\n    /**\n     * @dev Emitted when `owner` enables `approved` to manage the `tokenId` token.\n     */\n    event Approval(address indexed owner, address indexed approved, uint256 indexed tokenId);\n\n    // Mapping from token ID to owner address\n    mapping (uint256 => address) private _owners;\n\n    // Mapping owner address to token count\n    mapping (address => uint256) private _balances;\n    // Mapping from token ID to approved address\n    mapping (uint256 => address) private _tokenApprovals;\n\n    function _beforeTokenTransfer(address from, address to, uint256 tokenId) internal virtual { }\n\n    function _approve(address to, uint256 tokenId) internal virtual {\n        _tokenApprovals[tokenId] = to;\n        emit Approval(ownerOf(tokenId), to, tokenId);\n    }\n    \n        function ownerOf(uint256 tokenId) public view virtual  returns (address) {\n        address owner = _owners[tokenId];\n        require(owner != address(0), \"ERC721: owner query for nonexistent token\");\n        return owner;\n    }\n    \n    function _transfer(address from, address to, uint256 tokenId) internal virtual {\n        require(ownerOf(tokenId) == from, \"ERC721: transfer of token that is not own\");\n        require(to != address(0), \"ERC721: transfer to the zero address\");\n\n        _beforeTokenTransfer(from, to, tokenId);\n\n        // Clear approvals from the previous owner\n        _approve(address(0), tokenId);\n\n        _balances[from] -= 1;\n        _balances[to] += 1;\n        _owners[tokenId] = to;\n\n        emit Transfer(from, to, tokenId);\n    }\n    \n        function _mint(address to, uint256 tokenId) internal virtual {\n        require(to != address(0), \"ERC721: mint to the zero address\");\n        require(!_exists(tokenId), \"ERC721: token already minted\");\n\n        _beforeTokenTransfer(address(0), to, tokenId);\n\n        _balances[to] += 1;\n        _owners[tokenId] = to;\n\n        emit Transfer(address(0), to, tokenId);\n    }\n    \n        function _exists(uint256 tokenId) internal view virtual returns (bool) {\n        return _owners[tokenId] != address(0);\n    }\n    \n    struct Product {\n        uint productId;\n        string productName;\n        uint price;\n        bool offered;\n    }\n     \n    struct Client {\n        bool isValid;\n        uint time;\n    }\n    \n     modifier OnlyinsOwner(uint _prodID) {\n         require(msg.sender == ownerOf(_prodID));\n         _;\n    }\n         modifier TimeCheck {\n         require(block.timestamp <= timeLocked + 15 minutes );\n         _;\n     }\n    \n    mapping(uint => Product) public productIndex;\n    mapping(address => mapping(uint => Client)) public client;\n    uint256 timeLocked = block.timestamp;\n    uint productCounter;\n    \n     //address payable insOwner;\n    // constructor(address payable _insOwner) public{\n    //     insOwner = _insOwner;\n    // }\n \n    function addProduct(uint _productId, string memory _productName, uint _price, address pOwne ) public  {\n        // make the contract owner who add products\n       productCounter++;\n       address prodOwner =pOwne;\n       productIndex[productCounter]= Product(_productId, _productName, _price, true);\n\n       // this step need to be verified by MultiSig ->> accept or reject\n       _mint(prodOwner, productCounter);\n    }\n    \n    \n    function doNotOffer(uint _productIndex) public OnlyinsOwner(_productIndex) {\n\n        productIndex[_productIndex].offered = false;\n    }\n    \n    function forOffer(uint _productIndex) public OnlyinsOwner(_productIndex) {\n        \n        productIndex[_productIndex].offered = true;\n    }\n    \n    function changePrice(uint _productIndex, uint _price) public OnlyinsOwner(_productIndex) {\n\n        productIndex[_productIndex].price = _price;\n        \n    }\n    \n\n      function fetch(uint _productIndex)public view returns(uint productId,string memory productName,uint price, bool offere ,address owner){\n        productId =productIndex[_productIndex].productId;\n        productName =productIndex[_productIndex].productName;\n        price = productIndex[_productIndex].price;\n        offere = productIndex[_productIndex].offered;\n        owner = ownerOf(_productIndex);\n        \n    }\n\n\n    function getBalance(address _address) public view returns(uint256 balance){\n     balance = address(_address).balance;\n        \n    }\n    \n    function buyInsurance(uint _productIndex) public payable TimeCheck {\n        require(productIndex[_productIndex].offered == true, \"This item is sold out!\");\n        require(msg.value <= productIndex[_productIndex].price, \"You don't have enough tokens!\");       \n        Client(true, block.timestamp);\n        //buyer =  msg.sender;\n        _transfer(ownerOf(_productIndex), msg.sender,_productIndex);   \n        doNotOffer(_productIndex);   \n    } \n    \n}\n\n",
  "sourcePath": "/Users/nihal/Desktop/codingdojo-main/week6/Insurance dApp/contracts/Insurance.sol",
  "compiler": {
    "name": "solc",
    "version": "0.7.0+commit.9e61f92b.Emscripten.clang"
  },
  "schemaVersion": "3.3.4",
  "updatedAt": "2021-03-17T14:17:14.301Z",
  "networkType": "ethereum",
  "devdoc": {
    "events": {
      "Approval(address,address,uint256)": {
        "details": "Emitted when `owner` enables `approved` to manage the `tokenId` token."
      }
    },
    "kind": "dev",
    "methods": {},
    "version": 1
  },
  "userdoc": {
    "kind": "user",
    "methods": {},
    "version": 1
  }
}